S01400004275696C64596F75724361722E737265635B
S11300000C942A000C9447000C9447000C9447006D
S11300100C9447000C9447000C9447000C94CD04B6
S11300200C94F6040C941F050C94DE010C94470008
S11300300C9447000C9447000C9447000C94470020
S11300400C9447000C9447000C9447000C94470010
S11300500C94470011241FBECFE5D8E0DEBFCDBF0E
S113006010E0A0E6B0E0ECEFFFE002C005900D92D6
S1130070AC37B107D9F720E0ACE7B0E001C01D927E
S1130080A638B207E1F70E9478010C94FC070C949F
S1130090000042E065E082E00E94F50142E066E093
S11300A082E00E94F50142E067E082E00E94F501EF
S11300B041E062E082E00E94F50141E063E082E019
S11300C00E94F50141E064E082E00E94F50141E014
S11300D065E082E00E94F00241E066E082E00E9476
S11300E0F00241E067E082E00E94F0020895DF92AE
S11300F0EF92FF920F931F93CF93DF93CDB7DEB7A9
S11301002A970FB6F894DEBF0FBECDBF7C0199E0ED
S1130110E2E7F0E0DE01129601900D929A95E1F784
S1130120E114F104B9F580E03DC040E0602F82E0C5
S11301300E94F00212E025C0AE014F5F5F4F612FB5
S113014082E00E947F03898181111AC0212F30E04F
S113015022503109802F90E00597A901440F551FC3
S1130160240F351F41E050E04C0F5D1F240F351F55
S1130170F901E80FF91FD1808AE090E00E94BF01E5
S11301801F5F1530C8F241E0602F82E00E94F00248
S11301900F5F03C005E0DD24DA94083030F2F70184
S11301A0D08281E02A960FB6F894DEBF0FBECDBF91
S11301B0DF91CF911F910F91FF90EF90DF90089501
S11301C042E0692F0E94F501089541E0692F0E94E1
S11301D0F002089540E0692F0E94F0020895FF9212
S11301E00F931F93CF93DF9300D0CDB7DEB78C016D
S11301F0FC018081898393819A83618142E00E941A
S1130200F501F82EF1E08F1307C0F801628142E096
S113021080810E94F501F82EF1E0FF1207C0F80179
S1130220638142E080810E94F501F82EBE016F5F78
S11302307F4FF80184810E940A048F2D0F900F9044
S1130240DF91CF911F910F91FF9008951F93CF934A
S1130250DF93009769F1662369F1643668F5162F18
S1130260EC01442319F0413091F028C0698141E048
S113027088810E94F0026A8140E088810E94F00235
S1130280612F70E08C810E94230481E018C0698191
S113029040E088810E94F0026A8141E088810E94E6
S11302A0F002612F70E08C810E94230481E007C07A
S11302B080E005C080E003C080E001C080E0DF9101
S11302C0CF911F910895CF93DF93009769F0EC01CC
S11302D0698140E088810E94F0026A8140E088815F
S11302E00E94F00281E001C080E0DF91CF91089587
S11302F0CF93DF931F92CDB7DEB781E095E00E94E4
S1130300E0000E9453050E94DD050E94490010E0B0
S1130310CE0101960E94F9058981823061F4812F12
S11303200E947C0504C0CE0101960E94F9058981D2
S11303308230C9F3EDCF863019F40E945E05E8CF10
S1130340843019F40E946D05E3CF853081F41F5F7A
S113035004C0CE0101960E94F90589818530C9F354
S1130360153009F411E0812F0E94FC05D1CF80E003
S11303700E947C05CDCF8BE083BF81E00895CF93AD
S1130380DF93EC0110927D0010927C000E94BB016F
S11303908DE78CBF89B7826089BF8FB780688FBFB4
S11303A080917C0090917D00C817D907C8F789B760
S11303B08D7F89BF81E0DF91CF9108951F920F92C5
S11303C00FB60F9211248F939F9380917C0090918C
S11303D07D00019690937D0080937C009F918F9186
S11303E00F900FBE0F901F901895683008F0EAC068
S11303F0843008F0E9C0813009F43FC038F082301D
S113040009F472C0833009F4A6C0E0C04130A9F0F9
S113041018F0423031F1DCC02AB381E090E002C030
S1130420880F991F6A95E2F78095922F98239ABBBB
S11304309BB389238BBB81E0089580B78B7F80BFFA
S11304402AB381E090E002C0880F991F6A95E2F711
S1130450982F909592239ABB9BB3892B8BBB81E0F9
S113046008952AB381E090E002C0880F991F6A952D
S1130470E2F7822B8ABB81E008954130A9F018F09D
S1130480423031F1A7C027B381E090E002C0880F69
S1130490991F6A95E2F78095922F982397BB98B39A
S11304A0892388BB81E0089580B78B7F80BF27B301
S11304B081E090E002C0880F991F6A95E2F7982FB7
S11304C09095922397BB98B3892B88BB81E00895BC
S11304D027B381E090E002C0880F991F6A95E2F784
S11304E0822B87BB81E008954130A9F018F0423097
S11304F031F172C024B381E090E002C0880F991FEB
S11305006A95E2F78095922F982394BB95B389233B
S113051085BB81E0089580B78B7F80BF24B381E0E1
S113052090E002C0880F991F6A95E2F7982F909582
S1130530922394BB95B3892B85BB81E0089524B3A2
S113054081E090E002C0880F991F6A95E2F7822B40
S113055084BB81E008954130A9F018F0423031F1B4
S11305603DC021B381E090E002C0880F991F6A95D5
S1130570E2F78095922F982391BB9BB389238BBB81
S113058081E0089580B78B7F80BF21B381E090E044
S113059002C0880F991F6A95E2F7982F90959223CD
S11305A091BB92B3892B82BB81E0089521B381E092
S11305B090E002C0880F991F6A95E2F7822B81BBF5
S11305C081E0089580E0089580E0089580E0089532
S11305D080E0089580E0089580E0089580E0089523
S11305E0683008F080C0813031F138F0823009F48D
S11305F040C0833009F45AC078C0442379F04130B4
S113060009F075C02BB381E090E002C0880F991FF8
S11306106A95E2F7822B8BBB81E008952BB381E0CE
S113062090E002C0880F991F6A95E2F780958223B3
S11306308BBB81E00895442379F0413009F059C01F
S113064028B381E090E002C0880F991F6A95E2F711
S1130650822B88BB81E0089528B381E090E002C03A
S1130660880F991F6A95E2F78095822388BB81E001
S11306700895442371F04130F1F525B381E090E011
S113068002C0880F991F6A95E2F7822B85BB81E02F
S1130690089525B381E090E002C0880F991F6A9500
S11306A0E2F78095822385BB81E00895442371F0AD
S11306B0413019F522B381E090E002C0880F991F00
S11306C06A95E2F7822B82BB81E0089522B381E030
S11306D090E002C0880F991F6A95E2F78095822303
S11306E082BB81E0089580E0089581E0089580E070
S11306F0089580E0089580E0089580E008956830CA
S1130700D8F541155105D1F1813091F028F08230AE
S1130710D9F0833029F134C089B390E002C09595B3
S113072087956A95E2F78170FA01808381E00895E4
S113073086B390E002C0959587956A95E2F781703B
S1130740FA01808381E0089583B390E002C0959517
S113075087956A95E2F78170FA01808381E00895B4
S113076080B390E002C0959587956A95E2F7817011
S1130770FA01808381E0089580E0089580E008957F
S113078080E00895813091F028F08230D9F08330F0
S113079029F130C02BB381E090E002C0880F991F8B
S11307A06A95E2F782278BBB81E0089528B381E044
S11307B090E002C0880F991F6A95E2F7822788BBF0
S11307C081E0089525B381E090E002C0880F991F6D
S11307D06A95E2F7822785BB81E0089522B381E020
S11307E090E002C0880F991F6A95E2F7822782BBC6
S11307F081E0089580E00895E0E8F0E0618180817F
S11308000E94C2030895EEE7F0E0618180810E94B6
S1130810C2030895882319F0813049F012C0FB0106
S113082080819181909381008093800007C0FB01B7
S11308308081918190937F0080937E000E94730455
S1130840089580E00895CF92DF92EF92FF92CF93C4
S1130850C82F80E090E00E94010720E030E040E8EB
S113086053E40E948F0720E030E048EC52E40E94F9
S113087060060E94D2066B017C01CC2319F0C130C2
S1130880A9F02AC0E0E8F0E0618141E080810E94A3
S1130890F0028C2F0E94B404B6018C2F0E948004B5
S11308A06CEF73E08C2F0E94910413C0EEE7F0E02C
S11308B0618141E080810E94F0028C2F0E94B40487
S11308C0B6018C2F0E94800463E074E08C2F0E9498
S11308D091040E94770401C080E0CF91FF90EF90D3
S11308E0DF90CF9008951FBC1EBC81E008958EB5A3
S11308F083608EBD80E09FEF9DBD8CBD81E0089537
S1130900882319F0813031F00AC07A957BBD6ABD25
S113091081E008957A9579BD68BD81E0089580E00D
S1130920089561157105E1F0882319F0813049F0CB
S113093019C089B7806189BF709385006093840072
S113094007C089B7886089BF709383006093820071
S113095089B7846089BF8FB780688FBF81E00895AD
S113096080E0089580E00895882319F0813051F0E3
S113097012C089B78F7E89BF1092850010928400BF
S113098081E0089589B7877F89BF10928300109210
S1130990820081E0089580E008951F920F920FB6BF
S11309A00F9211242F933F934F935F936F937F93F1
S11309B08F939F93AF93BF93EF93FF93E091840042
S11309C0F0918500309709F00995FF91EF91BF915F
S11309D0AF919F918F917F916F915F914F913F91D3
S11309E02F910F900FBE0F901F9018951F920F928A
S11309F00FB60F9211242F933F934F935F936F93EE
S1130A007F938F939F93AF93BF93EF93FF93E09163
S1130A108200F0918300309709F00995FF91EF91DE
S1130A20BF91AF919F918F917F916F915F914F9102
S1130A303F912F910F900FBE0F901F9018951F920A
S1130A400F920FB60F9211242F933F934F935F93FE
S1130A506F937F938F939F93AF93BF93EF93FF9382
S1130A6080E09FEF9DBD8CBDE0918400F0918500F6
S1130A70309709F00995E0918200F0918300309756
S1130A8009F00995FF91EF91BF91AF919F918F91DB
S1130A907F916F915F914F913F912F910F900FBE76
S1130AA00F901F90189585E690E00E94EF00882330
S1130AB021F080E690E00E94EF00089541E06EE1AD
S1130AC085E690E00E942601882331F040E06EE143
S1130AD080E690E00E942601089541E06EE180E600
S1130AE090E00E942601882331F040E06EE185E623
S1130AF090E00E9426010895823061F128F4882351
S1130B0049F08130B1F058C08330A9F1843009F440
S1130B1043C052C080E690E00E946301882309F438
S1130B204BC085E690E00E946301882309F444C029
S1130B3043C040E06EE180E690E00E9426018823F5
S1130B40D9F140E06EE185E690E00E942601882319
S1130B5099F132C040E06CE380E690E00E94260107
S1130B60882351F140E06CE385E690E00E94260181
S1130B70882311F121C040E06AE580E690E00E94FC
S1130B8026018823C9F040E06AE585E690E00E94EA
S1130B902601882389F010C041E06EE180E690E0F0
S1130BA00E942601882341F041E06EE185E690E051
S1130BB00E942601882301F008958091700090918D
S1130BC071000E94E00080916E0090916F000E947D
S1130BD0E00080916C0090916D000E94E000809193
S1130BE06A0090916B000E94E0000E94490081E03D
S1130BF008950E9477000895CF93C82F80917000C4
S1130C00909171000E94EA0080916E0090916F00B3
S1130C100E94EA0080916C0090916D000E94EA00AD
S1130C2080916A0090916B000E94EA00C23099F0B2
S1130C3028F4CC2341F1C13031F03FC0C33099F0E6
S1130C40C430C9F03AC080917000909171000E9444
S1130C50E50081E033C080916E0090916F000E94A6
S1130C60E50081E02BC080916C0090916D000E94A2
S1130C70E50081E023C080916A0090916B000E949E
S1130C80E50081E01BC080917000909171000E948A
S1130C90E50080916E0090916F000E94E5008091C4
S1130CA06C0090916D000E94E50080916A00909123
S1130CB06B000E94E50081E001C080E0CF910895BF
S1130CC00E9474060C9455070E944E0758F00E9427
S1130CD0470740F029F45F3F29F00C943E07511177
S1130CE00C9489070C9444070E94660768F39923BF
S1130CF0B1F3552391F3951B550BBB27AA27621714
S1130D007307840738F09F5F5F4F220F331F441F20
S1130D10AA1FA9F335D00E2E3AF0E0E832D0915054
S1130D205040E695001CCAF72BD0FE2F29D0660F41
S1130D30771F881FBB1F261737074807AB07B0E884
S1130D4009F0BB0B802DBF01FF2793585F4F3AF08A
S1130D509E3F510578F00C943E070C9489075F3F41
S1130D60E4F3983ED4F3869577956795B795F79510
S1130D709F5FC9F7880F911D9695879597F90895F8
S1130D80E1E0660F771F881FBB1F62177307840794
S1130D90BA0720F0621B730B840BBA0BEE1F88F7A3
S1130DA0E09508950E946E0788F09F5798F0B92F38
S1130DB09927B751B0F0E1F0660F771F881F991F8C
S1130DC01AF0BA95C9F714C0B13091F00E9488079F
S1130DD0B1E008950C948807672F782F8827B85FAF
S1130DE039F0B93FCCF3869577956795B395D9F7E4
S1130DF03EF490958095709561957F4F8F4F9F4FEE
S1130E000895E89409C097FB3EF4909580957095F9
S1130E1061957F4F8F4F9F4F9923A9F0F92F96E942
S1130E20BB279395F695879577956795B795F111B7
S1130E30F8CFFAF4BB0F11F460FF1BC06F5F7F4F54
S1130E408F4F9F4F16C0882311F096E911C0772366
S1130E5021F09EE8872F762F05C0662371F096E86F
S1130E60862F70E060E02AF09A95660F771F881F3E
S1130E70DAF7880F9695879597F9089597F99F67FC
S1130E8080E870E060E008959FEF80EC089500240E
S1130E900A941616170618060906089500240A94DB
S1130EA012161306140605060895092E0394000C61
S1130EB011F4882352F0BB0F40F4BF2B11F460FFF0
S1130EC004C06F5F7F4F8F4F9F4F089557FD905819
S1130ED0440F551F59F05F3F71F04795880F97FBFA
S1130EE0991F61F09F3F79F08795089512161306B4
S1130EF01406551FF2CF4695F1DF08C016161706E3
S1130F001806991FF1CF8695710561050894089517
S1130F10E894BB2766277727CB0197F908950E94A9
S1130F20A2070C9455070E94470738F00E944E0709
S1130F3020F0952311F00C943E070C9444071124DF
S1130F400C9489070E94660770F3959FC1F3950F6F
S1130F5050E0551F629FF001729FBB27F00DB11D39
S1130F60639FAA27F00DB11DAA1F649F6627B00DC9
S1130F70A11D661F829F2227B00DA11D621F739FB2
S1130F80B00DA11D621F839FA00D611D221F749FC0
S1130F903327A00D611D231F849F600D211D822F07
S1130FA0762F6A2F11249F5750409AF0F1F088232E
S1130FB04AF0EE0FFF1FBB1F661F771F881F91505B
S1130FC05040A9F79E3F510580F00C943E070C94C5
S1130FD089075F3FE4F3983ED4F386957795679548
S1130FE0B795F795E7959F5FC1F7FE2B880F911D85
S10F0FF09695879597F90895F894FFCF23
S1130FFC03060705010302030400010701060105AA
S10F100C010401020304050607080900A2
S9030000FC
